{
  "contractName": "donation",
  "abi": [
    {
      "inputs": [],
      "stateMutability": "nonpayable",
      "type": "constructor"
    },
    {
      "anonymous": false,
      "inputs": [
        {
          "indexed": false,
          "internalType": "address",
          "name": "_from",
          "type": "address"
        },
        {
          "indexed": false,
          "internalType": "uint256",
          "name": "_id",
          "type": "uint256"
        },
        {
          "indexed": false,
          "internalType": "string",
          "name": "_name",
          "type": "string"
        }
      ],
      "name": "donated",
      "type": "event"
    },
    {
      "inputs": [
        {
          "internalType": "address",
          "name": "",
          "type": "address"
        }
      ],
      "name": "address_to_id",
      "outputs": [
        {
          "internalType": "uint256",
          "name": "",
          "type": "uint256"
        }
      ],
      "stateMutability": "view",
      "type": "function",
      "constant": true
    },
    {
      "inputs": [],
      "name": "company_address",
      "outputs": [
        {
          "internalType": "address",
          "name": "",
          "type": "address"
        }
      ],
      "stateMutability": "view",
      "type": "function",
      "constant": true
    },
    {
      "inputs": [],
      "name": "customer_id_count",
      "outputs": [
        {
          "internalType": "uint256",
          "name": "",
          "type": "uint256"
        }
      ],
      "stateMutability": "view",
      "type": "function",
      "constant": true
    },
    {
      "inputs": [],
      "name": "expenses_counter",
      "outputs": [
        {
          "internalType": "uint256",
          "name": "",
          "type": "uint256"
        }
      ],
      "stateMutability": "view",
      "type": "function",
      "constant": true
    },
    {
      "inputs": [
        {
          "internalType": "uint256",
          "name": "",
          "type": "uint256"
        }
      ],
      "name": "id_to_expense",
      "outputs": [
        {
          "internalType": "uint256",
          "name": "expense_id",
          "type": "uint256"
        },
        {
          "internalType": "uint256",
          "name": "expense_amount",
          "type": "uint256"
        },
        {
          "internalType": "string",
          "name": "expense_cause",
          "type": "string"
        },
        {
          "internalType": "uint256",
          "name": "date",
          "type": "uint256"
        },
        {
          "internalType": "string",
          "name": "transaction_id",
          "type": "string"
        }
      ],
      "stateMutability": "view",
      "type": "function",
      "constant": true
    },
    {
      "inputs": [
        {
          "internalType": "uint256",
          "name": "",
          "type": "uint256"
        }
      ],
      "name": "id_to_total_donation",
      "outputs": [
        {
          "internalType": "uint256",
          "name": "",
          "type": "uint256"
        }
      ],
      "stateMutability": "view",
      "type": "function",
      "constant": true
    },
    {
      "inputs": [
        {
          "internalType": "string",
          "name": "_message",
          "type": "string"
        }
      ],
      "name": "make_donation",
      "outputs": [
        {
          "internalType": "uint256",
          "name": "",
          "type": "uint256"
        }
      ],
      "stateMutability": "payable",
      "type": "function",
      "payable": true
    },
    {
      "inputs": [
        {
          "internalType": "uint256",
          "name": "_amount",
          "type": "uint256"
        },
        {
          "internalType": "string",
          "name": "_cause",
          "type": "string"
        },
        {
          "internalType": "uint256",
          "name": "_date",
          "type": "uint256"
        },
        {
          "internalType": "string",
          "name": "_transaction_id",
          "type": "string"
        }
      ],
      "name": "make_expense",
      "outputs": [
        {
          "internalType": "uint256",
          "name": "",
          "type": "uint256"
        }
      ],
      "stateMutability": "payable",
      "type": "function",
      "payable": true
    }
  ],
  "bytecode": "0x608060405273ca35b7d915458ef540ade6068dfe2f44e8fa733c6000806101000a81548173ffffffffffffffffffffffffffffffffffffffff021916908373ffffffffffffffffffffffffffffffffffffffff16021790555034801561006457600080fd5b506000600381905550610dce8061007c6000396000f3fe60806040526004361061007b5760003560e01c806370a4b2a11161004e57806370a4b2a1146101435780637a52f30e1461016e578063b98564d3146101ab578063bd24b4cf146101ec5761007b565b8063245951a51461008057806335a28eb3146100bd5780633ead6bc6146100e8578063707c1c8414610118575b600080fd5b34801561008c57600080fd5b506100a760048036038101906100a291906108db565b61021c565b6040516100b49190610a47565b60405180910390f35b3480156100c957600080fd5b506100d2610234565b6040516100df91906109ee565b60405180910390f35b61010260048036038101906100fd919061089a565b610258565b60405161010f9190610a47565b60405180910390f35b34801561012457600080fd5b5061012d6104ed565b60405161013a9190610a47565b60405180910390f35b34801561014f57600080fd5b506101586104f3565b6040516101659190610a47565b60405180910390f35b34801561017a57600080fd5b5061019560048036038101906101909190610871565b6104f9565b6040516101a29190610a47565b60405180910390f35b3480156101b757600080fd5b506101d260048036038101906101cd91906108db565b610511565b6040516101e3959493929190610a62565b60405180910390f35b61020660048036038101906102019190610904565b610657565b6040516102139190610a47565b60405180910390f35b60026020528060005260406000206000915090505481565b60008054906101000a900473ffffffffffffffffffffffffffffffffffffffff1681565b600080600160003373ffffffffffffffffffffffffffffffffffffffff1673ffffffffffffffffffffffffffffffffffffffff16815260200190815260200160002054141561037b576001600360008282546102b49190610b35565b92505081905550600354600160003373ffffffffffffffffffffffffffffffffffffffff1673ffffffffffffffffffffffffffffffffffffffff1681526020019081526020016000208190555060013461030e9190610b8b565b60026000600160003373ffffffffffffffffffffffffffffffffffffffff1673ffffffffffffffffffffffffffffffffffffffff168152602001908152602001600020548152602001908152602001600020600082825461036f9190610b35565b925050819055506103f1565b6001346103889190610b8b565b60026000600160003373ffffffffffffffffffffffffffffffffffffffff1673ffffffffffffffffffffffffffffffffffffffff16815260200190815260200160002054815260200190815260200160002060008282546103e99190610b35565b925050819055505b60008054906101000a900473ffffffffffffffffffffffffffffffffffffffff1673ffffffffffffffffffffffffffffffffffffffff166108fc349081150290604051600060405180830381858888f19350505050158015610457573d6000803e3d6000fd5b507f4247797f65d8f888b46dd270a930c8bc1a9a10acca455460dac958b747a3d96733600160003373ffffffffffffffffffffffffffffffffffffffff1673ffffffffffffffffffffffffffffffffffffffff16815260200190815260200160002054846040516104ca93929190610a09565b60405180910390a1670de0b6b3a7640000346104e69190610b8b565b9050919050565b60035481565b60055481565b60016020528060005260406000206000915090505481565b600460205280600052604060002060009150905080600001549080600101549080600201805461054090610c3a565b80601f016020809104026020016040519081016040528092919081815260200182805461056c90610c3a565b80156105b95780601f1061058e576101008083540402835291602001916105b9565b820191906000526020600020905b81548152906001019060200180831161059c57829003601f168201915b5050505050908060030154908060040180546105d490610c3a565b80601f016020809104026020016040519081016040528092919081815260200182805461060090610c3a565b801561064d5780601f106106225761010080835404028352916020019161064d565b820191906000526020600020905b81548152906001019060200180831161063057829003601f168201915b5050505050905085565b600060016005600082825461066c9190610b35565b9250508190555060006040518060a001604052806005548152602001670de0b6b3a76400008861069c9190610b8b565b815260200186815260200185815260200184815250905080600460006005548152602001908152602001600020600082015181600001556020820151816001015560408201518160020190805190602001906106f992919061073c565b5060608201518160030155608082015181600401908051906020019061072092919061073c565b509050506001866107319190610b8b565b915050949350505050565b82805461074890610c3a565b90600052602060002090601f01602090048101928261076a57600085556107b1565b82601f1061078357805160ff19168380011785556107b1565b828001600101855582156107b1579182015b828111156107b0578251825591602001919060010190610795565b5b5090506107be91906107c2565b5090565b5b808211156107db5760008160009055506001016107c3565b5090565b60006107f26107ed84610ae8565b610ac3565b90508281526020810184848401111561080a57600080fd5b610815848285610bf8565b509392505050565b60008135905061082c81610d6a565b92915050565b600082601f83011261084357600080fd5b81356108538482602086016107df565b91505092915050565b60008135905061086b81610d81565b92915050565b60006020828403121561088357600080fd5b60006108918482850161081d565b91505092915050565b6000602082840312156108ac57600080fd5b600082013567ffffffffffffffff8111156108c657600080fd5b6108d284828501610832565b91505092915050565b6000602082840312156108ed57600080fd5b60006108fb8482850161085c565b91505092915050565b6000806000806080858703121561091a57600080fd5b60006109288782880161085c565b945050602085013567ffffffffffffffff81111561094557600080fd5b61095187828801610832565b93505060406109628782880161085c565b925050606085013567ffffffffffffffff81111561097f57600080fd5b61098b87828801610832565b91505092959194509250565b6109a081610bbc565b82525050565b60006109b182610b19565b6109bb8185610b24565b93506109cb818560208601610c07565b6109d481610d59565b840191505092915050565b6109e881610bee565b82525050565b6000602082019050610a036000830184610997565b92915050565b6000606082019050610a1e6000830186610997565b610a2b60208301856109df565b8181036040830152610a3d81846109a6565b9050949350505050565b6000602082019050610a5c60008301846109df565b92915050565b600060a082019050610a7760008301886109df565b610a8460208301876109df565b8181036040830152610a9681866109a6565b9050610aa560608301856109df565b8181036080830152610ab781846109a6565b90509695505050505050565b6000610acd610ade565b9050610ad98282610c6c565b919050565b6000604051905090565b600067ffffffffffffffff821115610b0357610b02610d2a565b5b610b0c82610d59565b9050602081019050919050565b600081519050919050565b600082825260208201905092915050565b6000610b4082610bee565b9150610b4b83610bee565b9250827fffffffffffffffffffffffffffffffffffffffffffffffffffffffffffffffff03821115610b8057610b7f610c9d565b5b828201905092915050565b6000610b9682610bee565b9150610ba183610bee565b925082610bb157610bb0610ccc565b5b828204905092915050565b6000610bc782610bce565b9050919050565b600073ffffffffffffffffffffffffffffffffffffffff82169050919050565b6000819050919050565b82818337600083830152505050565b60005b83811015610c25578082015181840152602081019050610c0a565b83811115610c34576000848401525b50505050565b60006002820490506001821680610c5257607f821691505b60208210811415610c6657610c65610cfb565b5b50919050565b610c7582610d59565b810181811067ffffffffffffffff82111715610c9457610c93610d2a565b5b80604052505050565b7f4e487b7100000000000000000000000000000000000000000000000000000000600052601160045260246000fd5b7f4e487b7100000000000000000000000000000000000000000000000000000000600052601260045260246000fd5b7f4e487b7100000000000000000000000000000000000000000000000000000000600052602260045260246000fd5b7f4e487b7100000000000000000000000000000000000000000000000000000000600052604160045260246000fd5b6000601f19601f8301169050919050565b610d7381610bbc565b8114610d7e57600080fd5b50565b610d8a81610bee565b8114610d9557600080fd5b5056fea26469706673582212204bb6a615eaa7692624f092287ca24e86a8c96b03d5c48f7047a0a564910a258a64736f6c63430008040033",
  "immutableReferences": {},
  "source": "pragma solidity 0.8.4;\r\n\r\n\r\ncontract donation{\r\n    \r\n    address public company_address = 0xCA35b7d915458EF540aDe6068dFe2F44E8fa733c;\r\n    mapping (address => uint256) public address_to_id;\r\n    mapping(uint256 => uint256) public id_to_total_donation;\r\n    //mapping(uint256 => customer_profile) public id_to_profile;\r\n    uint256 public customer_id_count;\r\n    struct expense{\r\n        uint256 expense_id;\r\n        uint256 expense_amount;\r\n        string expense_cause;\r\n        uint256 date;\r\n        string transaction_id;\r\n        \r\n    }\r\n     mapping(uint256 => expense) public id_to_expense;\r\n    uint256 public expenses_counter;\r\n    \r\n    //Declare an Event\r\n    event  donated(address _from, uint256 _id, string _name);\r\n    \r\n\r\n\r\n    constructor(){\r\n        customer_id_count = 0;\r\n    }\r\n    struct customer_profile{\r\n        uint256 customer_id;\r\n        string name;\r\n        uint256 total_donation;\r\n    }\r\n    \r\n    function make_donation(string memory _message) public payable  returns (uint256) {\r\n        \r\n        if(address_to_id[msg.sender] == 0){\r\n            customer_id_count+=1;\r\n            address_to_id[msg.sender] = customer_id_count;\r\n            id_to_total_donation[address_to_id[msg.sender]] += ((msg.value)/(1 wei)); \r\n        }\r\n        else{\r\n            id_to_total_donation[address_to_id[msg.sender]] += ((msg.value)/(1 wei)); \r\n        }\r\n        payable(company_address).transfer(msg.value);\r\n        emit donated(msg.sender, address_to_id[msg.sender], _message);\r\n        return ((msg.value)/(1 ether));\r\n        \r\n    }\r\n    \r\n    function make_expense(uint256 _amount, string memory _cause, uint256 _date, string memory _transaction_id) public payable returns(uint256){\r\n        expenses_counter+=1;\r\n        expense memory new_expense = expense(expenses_counter, (_amount)/(1 ether), _cause, _date, _transaction_id);\r\n        id_to_expense[expenses_counter] = new_expense;\r\n        return (_amount)/(1 wei);\r\n    }\r\n    \r\n    \r\n}\r\n",
  "sourcePath": "I:/BlockChain Project/BlockChainProject/React Project/contracts/Donation.sol",
  "compiler": {
    "name": "solc",
    "version": "0.8.4+commit.c7e474f2.Emscripten.clang"
  },
  "schemaVersion": "3.4.1",
  "updatedAt": "2021-07-26T03:19:23.609Z",
  "networkType": "ethereum",
  "devdoc": {
    "kind": "dev",
    "methods": {},
    "version": 1
  },
  "userdoc": {
    "kind": "user",
    "methods": {},
    "version": 1
  }
}